{
  "contractName": "pufAuth",
  "abi": [
    {
      "inputs": [],
      "payable": false,
      "stateMutability": "nonpayable",
      "type": "constructor"
    },
    {
      "anonymous": false,
      "inputs": [
        {
          "indexed": false,
          "name": "_newsecondResponseHash",
          "type": "bytes32"
        },
        {
          "indexed": false,
          "name": "_validId",
          "type": "uint256"
        }
      ],
      "name": "pufApproval",
      "type": "event"
    },
    {
      "anonymous": false,
      "inputs": [
        {
          "indexed": false,
          "name": "_invalidId",
          "type": "uint256"
        }
      ],
      "name": "pufRejection",
      "type": "event"
    },
    {
      "constant": true,
      "inputs": [],
      "name": "getChallenge",
      "outputs": [
        {
          "name": "",
          "type": "uint8[32]"
        }
      ],
      "payable": false,
      "stateMutability": "view",
      "type": "function"
    },
    {
      "constant": false,
      "inputs": [
        {
          "name": "_m",
          "type": "uint8"
        }
      ],
      "name": "helperDataExtraction",
      "outputs": [
        {
          "name": "",
          "type": "uint8[8]"
        }
      ],
      "payable": false,
      "stateMutability": "nonpayable",
      "type": "function"
    },
    {
      "constant": true,
      "inputs": [],
      "name": "viewHelperDataExtraction",
      "outputs": [
        {
          "name": "",
          "type": "uint8[8]"
        }
      ],
      "payable": false,
      "stateMutability": "view",
      "type": "function"
    },
    {
      "constant": false,
      "inputs": [
        {
          "name": "_secondResponse",
          "type": "uint8[32]"
        },
        {
          "name": "_newChallenge",
          "type": "uint8[32]"
        },
        {
          "name": "_newXORResponse",
          "type": "uint8[32]"
        },
        {
          "name": "_id",
          "type": "uint256"
        }
      ],
      "name": "deltaCalculation",
      "outputs": [],
      "payable": false,
      "stateMutability": "nonpayable",
      "type": "function"
    },
    {
      "constant": true,
      "inputs": [],
      "name": "viewDeltaCalculation",
      "outputs": [
        {
          "name": "",
          "type": "uint8[8]"
        }
      ],
      "payable": false,
      "stateMutability": "view",
      "type": "function"
    },
    {
      "constant": false,
      "inputs": [],
      "name": "pufCorrection",
      "outputs": [],
      "payable": false,
      "stateMutability": "nonpayable",
      "type": "function"
    },
    {
      "constant": true,
      "inputs": [],
      "name": "viewPufCorrection",
      "outputs": [
        {
          "name": "",
          "type": "uint8[32]"
        }
      ],
      "payable": false,
      "stateMutability": "view",
      "type": "function"
    },
    {
      "constant": false,
      "inputs": [],
      "name": "pufChecking",
      "outputs": [],
      "payable": false,
      "stateMutability": "nonpayable",
      "type": "function"
    },
    {
      "constant": true,
      "inputs": [],
      "name": "falseResponsesCounting",
      "outputs": [
        {
          "name": "",
          "type": "uint8"
        }
      ],
      "payable": false,
      "stateMutability": "view",
      "type": "function"
    },
    {
      "constant": true,
      "inputs": [],
      "name": "viewPufChecking",
      "outputs": [
        {
          "name": "",
          "type": "bytes32"
        }
      ],
      "payable": false,
      "stateMutability": "view",
      "type": "function"
    }
  ],
  "bytecode": "0x6080604052604051806104000160405280600060ff168152602001600160ff168152602001600160ff168152602001600160ff168152602001600060ff168152602001600160ff168152602001600060ff168152602001600060ff168152602001600060ff168152602001600060ff168152602001600160ff168152602001600160ff168152602001600160ff168152602001600060ff168152602001600060ff168152602001600160ff168152602001600160ff168152602001600160ff168152602001600160ff168152602001600060ff168152602001600060ff168152602001600060ff168152602001600160ff168152602001600060ff168152602001600160ff168152602001600060ff168152602001600060ff168152602001600160ff168152602001600060ff168152602001600160ff168152602001600060ff168152602001600060ff168152506000906020620001609291906200032f565b50604051806104000160405280600060ff168152602001600160ff168152602001600060ff168152602001600160ff168152602001600160ff168152602001600160ff168152602001600060ff168152602001600060ff168152602001600160ff168152602001600060ff168152602001600060ff168152602001600160ff168152602001600160ff168152602001600060ff168152602001600060ff168152602001600060ff168152602001600160ff168152602001600060ff168152602001600160ff168152602001600060ff168152602001600060ff168152602001600060ff168152602001600160ff168152602001600060ff168152602001600060ff168152602001600160ff168152602001600060ff168152602001600160ff168152602001600060ff168152602001600160ff168152602001600160ff168152602001600160ff168152506001906020620002bd9291906200032f565b506000600a60016101000a81548160ff021916908360ff160217905550348015620002e757600080fd5b5033600c60006101000a81548173ffffffffffffffffffffffffffffffffffffffff021916908373ffffffffffffffffffffffffffffffffffffffff16021790555062000403565b826020601f01602090048101928215620003bd5791602002820160005b838211156200038c57835183826101000a81548160ff021916908360ff16021790555092602001926001016020816000010492830192600103026200034c565b8015620003bb5782816101000a81549060ff02191690556001016020816000010492830192600103026200038c565b505b509050620003cc9190620003d0565b5090565b6200040091905b80821115620003fc57600081816101000a81549060ff021916905550600101620003d7565b5090565b90565b61140880620004136000396000f3fe608060405234801561001057600080fd5b506004361061009d5760003560e01c80633753c3f0116100665780633753c3f0146101dd5780634ab41468146101e7578063759014f0146102d9578063ac8d13bb1461031e578063b15bebd8146103285761009d565b8062ff8d17146100a25780630498d03b146100c657806314baf6591461010c57806317fb4c26146101795780631fd72ccb14610197575b600080fd5b6100aa61036d565b604051808260ff1660ff16815260200191505060405180910390f35b6100ce610384565b6040518082600860200280838360005b838110156100f95780820151818401526020810190506100de565b5050505090500191505060405180910390f35b61013b6004803603602081101561012257600080fd5b81019080803560ff1690602001909291905050506103f5565b6040518082600860200280838360005b8381101561016657808201518184015260208101905061014b565b5050505090500191505060405180910390f35b6101816107d3565b6040518082815260200191505060405180910390f35b61019f610848565b6040518082600860200280838360005b838110156101ca5780820151818401526020810190506101af565b5050505090500191505060405180910390f35b6101e56108b9565b005b6102d76004803603610c208110156101fe57600080fd5b8101908080610400019060208060200260405190810160405280929190826020800280828437600081840152601f19601f820116905080830192505050505050919291929080610400019060208060200260405190810160405280929190826020800280828437600081840152601f19601f820116905080830192505050505050919291929080610400019060208060200260405190810160405280929190826020800280828437600081840152601f19601f820116905080830192505050505050919291929080359060200190929190505050610b68565b005b6102e1610df8565b60405180826020800280838360005b8381101561030b5780820151818401526020810190506102f0565b5050505090500191505060405180910390f35b610326610e69565b005b6103306111ca565b60405180826020800280838360005b8381101561035a57808201518184015260208101905061033f565b5050505090500191505060405180910390f35b6000600a60019054906101000a900460ff16905090565b61038c61123b565b60096008806020026040519081016040528092919082600880156103eb576020028201916000905b82829054906101000a900460ff1660ff16815260200190600101906020826000010492830192600103820291508084116103b45790505b5050505050905090565b6103fd61123b565b60048260ff16101561045a576040517f08c379a00000000000000000000000000000000000000000000000000000000081526004018080602001828103825260218152602001806113976021913960400191505060405180910390fd5b6000600260006008811061046a57fe5b602091828204019190066101000a81548160ff021916908360ff1602179055506000600260016008811061049a57fe5b602091828204019190066101000a81548160ff021916908360ff1602179055506000600280600881106104c957fe5b602091828204019190066101000a81548160ff021916908360ff160217905550600060026003600881106104f957fe5b602091828204019190066101000a81548160ff021916908360ff1602179055506000600260046008811061052957fe5b602091828204019190066101000a81548160ff021916908360ff1602179055506000600260056008811061055957fe5b602091828204019190066101000a81548160ff021916908360ff1602179055506000600260066008811061058957fe5b602091828204019190066101000a81548160ff021916908360ff160217905550600060026007600881106105b957fe5b602091828204019190066101000a81548160ff021916908360ff16021790555081600860016101000a81548160ff021916908360ff1602179055506000600190505b600860019054906101000a900460ff1660ff1660208161061757fe5b0460ff168160ff1611610767576000600190505b600860019054906101000a900460ff1660ff168160ff16116106bf57600360009054906101000a900460ff1660018083600860019054906101000a900460ff166001870302010360ff166020811061067f57fe5b602091828204019190069054906101000a900460ff16820201600360006101000a81548160ff021916908360ff160217905550808060010191505061062b565b506001600860019054906101000a900460ff166002020160ff16600360009054906101000a900460ff1660ff16816106f357fe5b066001600860019054906101000a900460ff16600202010360026001830360ff166008811061071e57fe5b602091828204019190066101000a81548160ff021916908360ff1602179055506000600360006101000a81548160ff021916908360ff16021790555080806001019150506105fb565b5060026008806020026040519081016040528092919082600880156107c7576020028201916000905b82829054906101000a900460ff1660ff16815260200190600101906020826000010492830192600103820291508084116107905790505b50505050509050919050565b60006006604051602001808260208015610828576020028201916000905b82829054906101000a900460ff1660ff16815260200190600101906020826000010492830192600103820291508084116107f15790505b505091505060405160208183030381529060405280519060200120905090565b61085061123b565b60026008806020026040519081016040528092919082600880156108af576020028201916000905b82829054906101000a900460ff1660ff16815260200190600101906020826000010492830192600103820291508084116108785790505b5050505050905090565b600c60009054906101000a900473ffffffffffffffffffffffffffffffffffffffff1673ffffffffffffffffffffffffffffffffffffffff163373ffffffffffffffffffffffffffffffffffffffff161461091357600080fd5b6000600190505b600860019054906101000a900460ff1660ff1660208161093657fe5b0460ff168160ff1611610b6557600860019054906101000a900460ff1660ff1660096001830360ff166008811061096957fe5b602091828204019190069054906101000a900460ff1660ff1610610a405760096001820360ff166008811061099a57fe5b602091828204019190069054906101000a900460ff166001600860019054906101000a900460ff166002020103600a60006101000a81548160ff021916908360ff160217905550600160066001600a60009054906101000a900460ff16600860019054906101000a900460ff166001860302010360ff1660208110610a1b57fe5b602091828204019190066101000a81548160ff021916908360ff160217905550610b58565b600860019054906101000a900460ff1660ff1660096001830360ff1660088110610a6657fe5b602091828204019190069054906101000a900460ff1660ff161015610b5757600060096001830360ff1660088110610a9a57fe5b602091828204019190069054906101000a900460ff1660ff1614610b565760096001820360ff1660088110610acb57fe5b602091828204019190069054906101000a900460ff16600a60006101000a81548160ff021916908360ff160217905550600060066001600a60009054906101000a900460ff16600860019054906101000a900460ff166001860302010360ff1660208110610b3557fe5b602091828204019190066101000a81548160ff021916908360ff1602179055505b5b5b808060010191505061091a565b50565b600c60009054906101000a900473ffffffffffffffffffffffffffffffffffffffff1673ffffffffffffffffffffffffffffffffffffffff163373ffffffffffffffffffffffffffffffffffffffff1614610bc257600080fd5b6003600a60019054906101000a900460ff1660ff1610610c2d576040517f08c379a00000000000000000000000000000000000000000000000000000000081526004018080602001828103825260258152602001806113b86025913960400191505060405180910390fd5b80600b81905550836006906020610c4592919061125e565b50826004906020610c5792919061125e565b50816007906020610c6992919061125e565b506000600190505b600860019054906101000a900460ff1660ff16602081610c8d57fe5b0460ff168160ff1611610df1576000600190505b600860019054906101000a900460ff1660ff168160ff1611610d3657600860009054906101000a900460ff166006600183600860019054906101000a900460ff166001870302010360ff1660208110610cf657fe5b602091828204019190069054906101000a900460ff16820201600860006101000a81548160ff021916908360ff1602179055508080600101915050610ca1565b506001600860019054906101000a900460ff166002020160ff1660026001830360ff1660088110610d6357fe5b602091828204019190069054906101000a900460ff16600860009054906101000a900460ff160160ff1681610d9457fe5b0660096001830360ff1660088110610da857fe5b602091828204019190066101000a81548160ff021916908360ff1602179055506000600860006101000a81548160ff021916908360ff1602179055508080600101915050610c71565b5050505050565b610e006112f8565b6000602080602002604051908101604052809291908260208015610e5f576020028201916000905b82829054906101000a900460ff1660ff1681526020019060010190602082600001049283019260010382029150808411610e285790505b5050505050905090565b600c60009054906101000a900473ffffffffffffffffffffffffffffffffffffffff1673ffffffffffffffffffffffffffffffffffffffff163373ffffffffffffffffffffffffffffffffffffffff1614610ec357600080fd5b6001604051602001808260208015610f16576020028201916000905b82829054906101000a900460ff1660ff1681526020019060010190602082600001049283019260010382029150808411610edf5790505b5050915050604051602081830303815290604052805190602001206006604051602001808260208015610f84576020028201916000905b82829054906101000a900460ff1660ff1681526020019060010190602082600001049283019260010382029150808411610f4d5790505b5050915050604051602081830303815290604052805190602001201415611140576000600190505b60208160ff161161104a5760006001820360ff1660208110610fca57fe5b602091828204019190069054906101000a900460ff1660076001830360ff1660208110610ff357fe5b602091828204019190069054906101000a900460ff161860056001830360ff166020811061101d57fe5b602091828204019190066101000a81548160ff021916908360ff1602179055508080600101915050610fac565b506004600090602061105d92919061131b565b506005600190602061107092919061131b565b506000600a60016101000a81548160ff021916908360ff1602179055507f8f624b3ecc2612a082b0a476e8f7af1a8bb8cff2d8b9dacd485c78b2bed41bc96006604051602001808260208015611101576020028201916000905b82829054906101000a900460ff1660ff16815260200190600101906020826000010492830192600103820291508084116110ca5790505b505091505060405160208183030381529060405280519060200120600b54604051808381526020018281526020019250505060405180910390a16111c8565b600a600181819054906101000a900460ff168092919060010191906101000a81548160ff021916908360ff160217905550506002600a60019054906101000a900460ff1660ff1611156111c7577f73d69511fd5a5b6f4c6722f20f6c060a27e379ba3cd3249769d7ac51c34de084600b546040518082815260200191505060405180910390a15b5b565b6111d26112f8565b6006602080602002604051908101604052809291908260208015611231576020028201916000905b82829054906101000a900460ff1660ff16815260200190600101906020826000010492830192600103820291508084116111fa5790505b5050505050905090565b604051806101000160405280600890602082028038833980820191505090505090565b826020601f016020900481019282156112e75791602002820160005b838211156112b857835183826101000a81548160ff021916908360ff160217905550926020019260010160208160000104928301926001030261127a565b80156112e55782816101000a81549060ff02191690556001016020816000010492830192600103026112b8565b505b5090506112f49190611366565b5090565b604051806104000160405280602090602082028038833980820191505090505090565b826020601f016020900481019282156113555791601f016020900482015b82811115611354578254825591600101919060010190611339565b5b5090506113629190611366565b5090565b61139391905b8082111561138f57600081816101000a81549060ff02191690555060010161136c565b5090565b9056fe426c6f636b2053697a65206d7573742062652067726561746572207468616e2034596f757220726573706f6e736520686173206d6f7265207468616e204f4e45206572726f72a165627a7a72305820e314e774904a101f3f81a84558f5e63d52bf05395299298707ef4c2dc8e683ff0029",
  "source": "pragma solidity >= 0.5.0;\n\ncontract pufAuth{\n    \n    uint8[32] firstChallenge = [0,1,1,1,0,1,0,0,0,0,1,1,1,0,0,1,1,1,1,0,0,0,1,0,1,0,0,1,0,1,0,0];\n    uint8[32] firstResponse = [0,1,0,1,1,1,0,0,1,0,0,1,1,0,0,0,1,0,1,0,0,0,1,0,0,1,0,1,0,1,1,1];\n\n    uint8[8] firstHelperData;\n    uint8 firstBlockSum;\n    uint8[32] newChallenge;\n    uint8[32] newResponse;\n    uint8[32] secondResponse;\n    uint8[32] newXORResponse;\n    uint8 secondBlockSum;\n    uint8 m;\n    uint8[8] blockDelta;\n    uint8 errorBitLocation;\n    uint8 falseResponseCounter = 0;\n    uint id;\n    address issuer;\n    \n    event pufApproval(bytes32 _newsecondResponseHash, uint _validId);\n    event pufRejection(uint _invalidId);\n\n\n    constructor() public {\n        issuer = msg.sender;    \n    }\n\n    modifier isIssuer() {\n        require(msg.sender == issuer);\n        _;\n    }\n \n    function getChallenge() public view returns(uint8[32] memory){\n        \n        return firstChallenge;\n        //emit getChallengebyUser(firstChallenge);\n    }\n    \n    \n    function helperDataExtraction(uint8 _m) public returns(uint8[8] memory){\n        \n        require(_m>=4, \"Block Size must be greater than 4\");\n        firstHelperData[0] = 0;\n        firstHelperData[1] = 0;\n        firstHelperData[2] = 0;\n        firstHelperData[3] = 0;\n        firstHelperData[4] = 0;\n        firstHelperData[5] = 0;\n        firstHelperData[6] = 0;\n        firstHelperData[7] = 0;\n                \n        m = _m;\n        for (uint8 j=1; j<=(32/m); j++){\n            for(uint8 i=1; i<=m; i++){\n                firstBlockSum = i * firstResponse[((j-1)*m + i - 1)] + firstBlockSum;\n            }\n            firstHelperData[j-1] = (2*m + 1) - firstBlockSum%(2*m + 1);\n            firstBlockSum = 0;\n        }\n        return firstHelperData;\n    }\n    \n    function viewHelperDataExtraction() public view returns(uint8[8] memory){\n        \n        return firstHelperData;\n    }\n        \n    function deltaCalculation(uint8[32] memory _secondResponse, \n                                                uint8[32] memory _newChallenge, \n                                                uint8[32] memory _newXORResponse,\n\t\t\t\t\t\tuint _id) public isIssuer{\n                                                    \n        require(falseResponseCounter < 3 , \"Your response has more than ONE error\");\n        id = _id;\n        secondResponse = _secondResponse;\n        newChallenge = _newChallenge;\n        newXORResponse = _newXORResponse;\n        \n        for (uint8 j=1; j<=(32/m); j++){\n            for(uint8 i=1; i<=m; i++){\n                secondBlockSum = i * secondResponse[((j-1)*m + i - 1)] + secondBlockSum;\n            }\n            blockDelta[j-1] = (secondBlockSum + firstHelperData[j-1]) % (2*m + 1);\n            secondBlockSum = 0;\n        }\n    }\n    \n    function viewDeltaCalculation() public view returns(uint8[8] memory){\n        \n        return blockDelta;\n    }\n    \n    function pufCorrection() public isIssuer{\n        \n      //  require(falseResponseCounter <= 1);\n        for (uint8 j=1; j<=(32/m); j++){\n            if (blockDelta[j-1] >= m){\n                errorBitLocation = (2*m) + 1 - blockDelta[j-1];\n                secondResponse[((j-1)*m) + errorBitLocation-1] = 1;\n            }\n            else if(blockDelta[j-1]<m){\n                if (blockDelta[j-1] != 0){\n                errorBitLocation = blockDelta[j-1];\n                secondResponse[((j-1)*m) + errorBitLocation-1] = 0;\n                }\n            }\n        }\n    }\n    \n    function viewPufCorrection() public view returns(uint8[32] memory){\n        \n        return secondResponse;\n    }\n    \n    function pufChecking() public isIssuer{\n        \n       // require(falseResponseCounter <= 1);\n        if ((keccak256(abi.encodePacked(secondResponse))) == keccak256(abi.encodePacked(firstResponse))){\n            for (uint8 k=1; k<=32; k++){\n                newResponse[k-1] = newXORResponse[k-1] ^ firstChallenge[k-1];\n            }\n            firstChallenge = newChallenge;\n            firstResponse = newResponse;\n            falseResponseCounter = 0;\n            emit pufApproval((keccak256(abi.encodePacked(secondResponse))), id);\n        }\n        else{\n            falseResponseCounter++; \n            if (falseResponseCounter>2){\n        \t\n\t\temit pufRejection(id);\n            }\n        }\n    }\n\n    function falseResponsesCounting() public view returns(uint8){\n\n         return falseResponseCounter;\n    }\n    \n    function viewPufChecking() public view returns(bytes32){\n\n        return (keccak256(abi.encodePacked(secondResponse)));\n    }\n\n    \n}\n",
  "sourcePath": "/home/behnaz/solidity-experiments/my contracts/mutual authentication with puf/contracts/pufAuth.sol",
  "compiler": {
    "name": "solc",
    "version": "0.5.8+commit.23d335f2.Emscripten.clang"
  },
  "schemaVersion": "3.0.16",
  "updatedAt": "2019-12-15T06:52:20.453Z",
  "devdoc": {
    "methods": {}
  },
  "userdoc": {
    "methods": {}
  }
}